{
  "contractName": "UTM",
  "abi": [
    {
      "inputs": [],
      "payable": false,
      "stateMutability": "nonpayable",
      "type": "constructor"
    },
    {
      "constant": true,
      "inputs": [
        {
          "internalType": "address",
          "name": "",
          "type": "address"
        }
      ],
      "name": "dronesActive",
      "outputs": [
        {
          "internalType": "bool",
          "name": "",
          "type": "bool"
        }
      ],
      "payable": false,
      "stateMutability": "view",
      "type": "function"
    },
    {
      "constant": true,
      "inputs": [],
      "name": "gridCount",
      "outputs": [
        {
          "internalType": "uint256",
          "name": "",
          "type": "uint256"
        }
      ],
      "payable": false,
      "stateMutability": "view",
      "type": "function"
    },
    {
      "constant": true,
      "inputs": [
        {
          "internalType": "uint256",
          "name": "",
          "type": "uint256"
        }
      ],
      "name": "noGo",
      "outputs": [
        {
          "internalType": "uint256",
          "name": "gridIndex",
          "type": "uint256"
        },
        {
          "internalType": "uint256",
          "name": "weight",
          "type": "uint256"
        },
        {
          "internalType": "uint256",
          "name": "fl",
          "type": "uint256"
        },
        {
          "internalType": "uint256",
          "name": "end_time",
          "type": "uint256"
        }
      ],
      "payable": false,
      "stateMutability": "view",
      "type": "function"
    },
    {
      "constant": true,
      "inputs": [],
      "name": "noGoCount",
      "outputs": [
        {
          "internalType": "uint256",
          "name": "",
          "type": "uint256"
        }
      ],
      "payable": false,
      "stateMutability": "view",
      "type": "function"
    },
    {
      "constant": true,
      "inputs": [
        {
          "internalType": "uint256",
          "name": "",
          "type": "uint256"
        }
      ],
      "name": "pathGrid",
      "outputs": [
        {
          "internalType": "uint256",
          "name": "gridIndex",
          "type": "uint256"
        },
        {
          "internalType": "uint256",
          "name": "weight",
          "type": "uint256"
        },
        {
          "internalType": "uint256",
          "name": "fl",
          "type": "uint256"
        },
        {
          "internalType": "uint256",
          "name": "end_time",
          "type": "uint256"
        }
      ],
      "payable": false,
      "stateMutability": "view",
      "type": "function"
    },
    {
      "constant": false,
      "inputs": [
        {
          "internalType": "uint256",
          "name": "_gridIndex",
          "type": "uint256"
        },
        {
          "internalType": "uint256",
          "name": "_fl",
          "type": "uint256"
        },
        {
          "internalType": "uint256",
          "name": "_ts",
          "type": "uint256"
        }
      ],
      "name": "addPath",
      "outputs": [],
      "payable": false,
      "stateMutability": "nonpayable",
      "type": "function"
    },
    {
      "constant": false,
      "inputs": [
        {
          "internalType": "uint256",
          "name": "_gridIndex",
          "type": "uint256"
        },
        {
          "internalType": "uint256",
          "name": "_fl",
          "type": "uint256"
        },
        {
          "internalType": "uint256",
          "name": "_ts",
          "type": "uint256"
        }
      ],
      "name": "removePath",
      "outputs": [],
      "payable": false,
      "stateMutability": "nonpayable",
      "type": "function"
    },
    {
      "constant": false,
      "inputs": [
        {
          "internalType": "uint256",
          "name": "_gridIndex",
          "type": "uint256"
        },
        {
          "internalType": "uint256",
          "name": "_fl",
          "type": "uint256"
        },
        {
          "internalType": "uint256",
          "name": "_ts",
          "type": "uint256"
        }
      ],
      "name": "addTempNoGo",
      "outputs": [],
      "payable": false,
      "stateMutability": "nonpayable",
      "type": "function"
    },
    {
      "constant": false,
      "inputs": [
        {
          "internalType": "uint256",
          "name": "_gridIndex",
          "type": "uint256"
        },
        {
          "internalType": "uint256",
          "name": "_fl",
          "type": "uint256"
        },
        {
          "internalType": "uint256",
          "name": "_ts",
          "type": "uint256"
        }
      ],
      "name": "removeTempNoGo",
      "outputs": [],
      "payable": false,
      "stateMutability": "nonpayable",
      "type": "function"
    },
    {
      "constant": false,
      "inputs": [
        {
          "internalType": "address",
          "name": "_droneID",
          "type": "address"
        }
      ],
      "name": "addDrone",
      "outputs": [],
      "payable": false,
      "stateMutability": "nonpayable",
      "type": "function"
    },
    {
      "constant": false,
      "inputs": [
        {
          "internalType": "address",
          "name": "_droneID",
          "type": "address"
        }
      ],
      "name": "removeDrone",
      "outputs": [],
      "payable": false,
      "stateMutability": "nonpayable",
      "type": "function"
    }
  ],
  "bytecode": "0x60806040523480156200001157600080fd5b506200002761062160286200091260201b60201c565b6200003b600e60286200091260201b60201c565b6200004f604560286200091260201b60201c565b62000063604360286200091260201b60201c565b620000786105f160286200091260201b60201c565b6200008d61058160286200091260201b60201c565b620000a261032860286200091260201b60201c565b620000b6608460286200091260201b60201c565b620000cb61042160286200091260201b60201c565b620000e06102e460286200091260201b60201c565b620000f561027960286200091260201b60201c565b62000109601f60286200091260201b60201c565b6200011e61036760286200091260201b60201c565b620001336105ab60286200091260201b60201c565b6200014861031b60286200091260201b60201c565b6200015d61045d60286200091260201b60201c565b62000171603d60286200091260201b60201c565b6200018661052860286200091260201b60201c565b6200019b6105f060286200091260201b60201c565b620001af60df60286200091260201b60201c565b620001c46101ac60286200091260201b60201c565b620001d961012660286200091260201b60201c565b620001ed60a760286200091260201b60201c565b6200020261062d60286200091260201b60201c565b62000216605460286200091260201b60201c565b6200022a60a360286200091260201b60201c565b6200023f6102e160286200091260201b60201c565b620002546103d660286200091260201b60201c565b6200026961026d60286200091260201b60201c565b6200027e61059160286200091260201b60201c565b620002936104fb60286200091260201b60201c565b620002a861033560286200091260201b60201c565b620002bd61041960286200091260201b60201c565b620002d261053960286200091260201b60201c565b620002e761054360286200091260201b60201c565b620002fb603d60286200091260201b60201c565b6200031061050060286200091260201b60201c565b6200032561046260286200091260201b60201c565b6200033a61048060286200091260201b60201c565b6200034e601f60286200091260201b60201c565b62000362600660286200091260201b60201c565b620003776104ac60286200091260201b60201c565b6200038b604560286200091260201b60201c565b620003a06105cb60286200091260201b60201c565b620003b561035360286200091260201b60201c565b620003ca61013360286200091260201b60201c565b620003df6104a560286200091260201b60201c565b620003f46104db60286200091260201b60201c565b6200040961023660286200091260201b60201c565b6200041e61039460286200091260201b60201c565b620004336105aa60286200091260201b60201c565b620004486102e360286200091260201b60201c565b6200045d61022560286200091260201b60201c565b6200047160c960286200091260201b60201c565b6200048661015260286200091260201b60201c565b6200049b6101d060286200091260201b60201c565b620004af607e60286200091260201b60201c565b620004c46101bb60286200091260201b60201c565b620004d8601d60286200091260201b60201c565b620004ed61027560286200091260201b60201c565b620005026103dc60286200091260201b60201c565b6200051761018c60286200091260201b60201c565b6200052b60ba60286200091260201b60201c565b6200054061020f60286200091260201b60201c565b6200055460c360286200091260201b60201c565b6200056961035660286200091260201b60201c565b6200057d60af60286200091260201b60201c565b6200059261011560286200091260201b60201c565b620005a761044d60286200091260201b60201c565b620005bc61026f60286200091260201b60201c565b620005d16102eb60286200091260201b60201c565b620005e661061160286200091260201b60201c565b620005fa60ef60286200091260201b60201c565b6200060f61059d60286200091260201b60201c565b6200062461026a60286200091260201b60201c565b620006396104af60286200091260201b60201c565b6200064e6105c660286200091260201b60201c565b620006636102ed60286200091260201b60201c565b620006786105b660286200091260201b60201c565b6200068d61021660286200091260201b60201c565b620006a261017560286200091260201b60201c565b620006b761062260286200091260201b60201c565b620006cc61034660286200091260201b60201c565b620006e060e760286200091260201b60201c565b620006f4605160286200091260201b60201c565b620007096103e560286200091260201b60201c565b6200071e6104f760286200091260201b60201c565b6200073361053160286200091260201b60201c565b6200074861053460286200091260201b60201c565b6200075d61057660286200091260201b60201c565b6200077160d560286200091260201b60201c565b6200078560ce60286200091260201b60201c565b6200079a61042860286200091260201b60201c565b620007af6105c160286200091260201b60201c565b620007c461030f60286200091260201b60201c565b620007d96105fb60286200091260201b60201c565b620007ee61053c60286200091260201b60201c565b6200080361021960286200091260201b60201c565b6200081861055260286200091260201b60201c565b6200082d61025660286200091260201b60201c565b610640600481905550610640600381905550620008576101c260286103fc6200097660201b60201c565b6200086f6101c360286103fc6200097660201b60201c565b620008876101c460286103fc6200097660201b60201c565b6200089f6101c560286103fc6200097660201b60201c565b620008b76101c660286103fc6200097660201b60201c565b620008cf6101c760286103fc6200097660201b60201c565b620008e76101c860286103fc6200097660201b60201c565b6200090c73df4a7ca8aaaa520c502e9799749819ba588c5b1162000ac460201b60201c565b62000b1f565b6040518060800160405280838152602001600081526020018281526020016000815250600080848152602001908152602001600020600082015181600001556020820151816001015560408201518160020155606082015181600301559050505050565b600260003373ffffffffffffffffffffffffffffffffffffffff1673ffffffffffffffffffffffffffffffffffffffff16815260200190815260200160002060009054906101000a900460ff1615620009ce57600080fd5b600060016000858152602001908152602001600020600101549050600081141562000a5b57604051806080016040528085815260200160038301815260200184815260200183815250600160008681526020019081526020016000206000820151816000015560208201518160010155604082015181600201556060820151816003015590505062000abe565b60405180608001604052808581526020016002830181526020018481526020018381525060016000868152602001908152602001600020600082015181600001556020820151816001015560408201518160020155606082015181600301559050505b50505050565b6001600260008373ffffffffffffffffffffffffffffffffffffffff1673ffffffffffffffffffffffffffffffffffffffff16815260200190815260200160002060006101000a81548160ff02191690831515021790555050565b6107da8062000b2f6000396000f3fe608060405234801561001057600080fd5b50600436106100a95760003560e01c80637b5207b0116100715780637b5207b0146101f25780638cf9eb9114610210578063c98a9ef314610267578063cb8b3a44146102a9578063ea7e0d6414610300578063fa0fbbfe14610342576100a9565b80632bf37cb6146100ae57806335cd5ebe146100f05780634c7fb40214610134578063622794e6146101525780636512345f14610196575b600080fd5b6100ee600480360360608110156100c457600080fd5b81019080803590602001909291908035906020019092919080359060200190929190505050610384565b005b6101326004803603602081101561010657600080fd5b81019080803573ffffffffffffffffffffffffffffffffffffffff169060200190929190505050610437565b005b61013c610492565b6040518082815260200191505060405180910390f35b6101946004803603602081101561016857600080fd5b81019080803573ffffffffffffffffffffffffffffffffffffffff169060200190929190505050610498565b005b6101d8600480360360208110156101ac57600080fd5b81019080803573ffffffffffffffffffffffffffffffffffffffff1690602001909291905050506104f3565b604051808215151515815260200191505060405180910390f35b6101fa610513565b6040518082815260200191505060405180910390f35b61023c6004803603602081101561022657600080fd5b8101908080359060200190929190505050610519565b6040518085815260200184815260200183815260200182815260200194505050505060405180910390f35b6102a76004803603606081101561027d57600080fd5b81019080803590602001909291908035906020019092919080359060200190929190505050610549565b005b6102d5600480360360208110156102bf57600080fd5b81019080803590602001909291905050506105ad565b6040518085815260200184815260200183815260200182815260200194505050505060405180910390f35b6103406004803603606081101561031657600080fd5b810190808035906020019092919080359060200190929190803590602001909291905050506105dd565b005b6103826004803603606081101561035857600080fd5b81019080803590602001909291908035906020019092919080359060200190929190505050610728565b005b6001600084815260200190815260200160002060030154811115610432576001806000858152602001908152602001600020600101541180156103dc5750816001600085815260200190815260200160002060020154145b1561043157600260016000858152602001908152602001600020600101540360016000858152602001908152602001600020600101819055506001806000858152602001908152602001600020600301819055505b5b505050565b6001600260008373ffffffffffffffffffffffffffffffffffffffff1673ffffffffffffffffffffffffffffffffffffffff16815260200190815260200160002060006101000a81548160ff02191690831515021790555050565b60035481565b6000600260008373ffffffffffffffffffffffffffffffffffffffff1673ffffffffffffffffffffffffffffffffffffffff16815260200190815260200160002060006101000a81548160ff02191690831515021790555050565b60026020528060005260406000206000915054906101000a900460ff1681565b60045481565b60006020528060005260406000206000915090508060000154908060010154908060020154908060030154905084565b6040518060800160405280848152602001600081526020018381526020018281525060008085815260200190815260200160002060008201518160000155602082015181600101556040820151816002015560608201518160030155905050505050565b60016020528060005260406000206000915090508060000154908060010154908060020154908060030154905084565b600260003373ffffffffffffffffffffffffffffffffffffffff1673ffffffffffffffffffffffffffffffffffffffff16815260200190815260200160002060009054906101000a900460ff161561063457600080fd5b60006001600085815260200190815260200160002060010154905060008114156106bf576040518060800160405280858152602001600383018152602001848152602001838152506001600086815260200190815260200160002060008201518160000155602082015181600101556040820151816002015560608201518160030155905050610722565b60405180608001604052808581526020016002830181526020018481526020018381525060016000868152602001908152602001600020600082015181600001556020820151816001015560408201518160020155606082015181600301559050505b50505050565b600080848152602001908152602001600020600301548111156107a05760008060008581526020019081526020016000206001015414801561077e57508160008085815260200190815260200160002060020154145b1561079f576001600080858152602001908152602001600020600101819055505b5b50505056fea265627a7a72315820b840b9f75576ec8bd8ebd5b8c24e95ccc993dec0f57ea2559b5235f5ea239f3964736f6c634300050c0032",
  "source": "pragma solidity ^0.5.12;\n\ncontract UTM {\n    // Model a Cell\n    struct Cell {\n        uint gridIndex; //single integer to index each cell on a grid\n        uint weight; // cell weight\n        uint fl; // Flight level\n        uint end_time; //timestamp\n    }\n\n    // Store grid info\n    mapping(uint => Cell) public noGo; //mapping of all NO-GO cells\n    mapping(uint => Cell) public pathGrid; //mapping of all cells which currently have a path on it\n    //Listof blacklisted drones admins\n    mapping(address => bool) public dronesActive; //mapping of all drones which are currently having a filed path / flying\n\n\n    // Store blackholes count\n    uint public noGoCount;\n    uint public gridCount;\n\n    constructor () public {\n        \n        initialiseNoGo(1569,40);\n        initialiseNoGo(14,40);\n        initialiseNoGo(69,40);\n        initialiseNoGo(67,40);\n        initialiseNoGo(1521,40);\n        initialiseNoGo(1409,40);\n        initialiseNoGo(808,40);\n        initialiseNoGo(132,40);\n        initialiseNoGo(1057,40);\n        initialiseNoGo(740,40);\n        initialiseNoGo(633,40);\n        initialiseNoGo(31,40);\n        initialiseNoGo(871,40);\n        initialiseNoGo(1451,40);\n        initialiseNoGo(795,40);\n        initialiseNoGo(1117,40);\n        initialiseNoGo(61,40);\n        initialiseNoGo(1320,40);\n        initialiseNoGo(1520,40);\n        initialiseNoGo(223,40);\n        initialiseNoGo(428,40);\n        initialiseNoGo(294,40);\n        initialiseNoGo(167,40);\n        initialiseNoGo(1581,40);\n        initialiseNoGo(84,40);\n        initialiseNoGo(163,40);\n        initialiseNoGo(737,40);\n        initialiseNoGo(982,40);\n        initialiseNoGo(621,40);\n        initialiseNoGo(1425,40);\n        initialiseNoGo(1275,40);\n        initialiseNoGo(821,40);\n        initialiseNoGo(1049,40);\n        initialiseNoGo(1337,40);\n        initialiseNoGo(1347,40);\n        initialiseNoGo(61,40);\n        initialiseNoGo(1280,40);\n        initialiseNoGo(1122,40);\n        initialiseNoGo(1152,40);\n        initialiseNoGo(31,40);\n        initialiseNoGo(6,40);\n        initialiseNoGo(1196,40);\n        initialiseNoGo(69,40);\n        initialiseNoGo(1483,40);\n        initialiseNoGo(851,40);\n        initialiseNoGo(307,40);\n        initialiseNoGo(1189,40);\n        initialiseNoGo(1243,40);\n        initialiseNoGo(566,40);\n        initialiseNoGo(916,40);\n        initialiseNoGo(1450,40);\n        initialiseNoGo(739,40);\n        initialiseNoGo(549,40);\n        initialiseNoGo(201,40);\n        initialiseNoGo(338,40);\n        initialiseNoGo(464,40);\n        initialiseNoGo(126,40);\n        initialiseNoGo(443,40);\n        initialiseNoGo(29,40);\n        initialiseNoGo(629,40);\n        initialiseNoGo(988,40);\n        initialiseNoGo(396,40);\n        initialiseNoGo(186,40);\n        initialiseNoGo(527,40);\n        initialiseNoGo(195,40);\n        initialiseNoGo(854,40);\n        initialiseNoGo(175,40);\n        initialiseNoGo(277,40);\n        initialiseNoGo(1101,40);\n        initialiseNoGo(623,40);\n        initialiseNoGo(747,40);\n        initialiseNoGo(1553,40);\n        initialiseNoGo(239,40);\n        initialiseNoGo(1437,40);\n        initialiseNoGo(618,40);\n        initialiseNoGo(1199,40);\n        initialiseNoGo(1478,40);\n        initialiseNoGo(749,40);\n        initialiseNoGo(1462,40);\n        initialiseNoGo(534,40);\n        initialiseNoGo(373,40);\n        initialiseNoGo(1570,40);\n        initialiseNoGo(838,40);\n        initialiseNoGo(231,40);\n        initialiseNoGo(81,40);\n        initialiseNoGo(997,40);\n        initialiseNoGo(1271,40);\n        initialiseNoGo(1329,40);\n        initialiseNoGo(1332,40);\n        initialiseNoGo(1398,40);\n        initialiseNoGo(213,40);\n        initialiseNoGo(206,40);\n        initialiseNoGo(1064,40);\n        initialiseNoGo(1473,40);\n        initialiseNoGo(783,40);\n        initialiseNoGo(1531,40);\n        initialiseNoGo(1340,40);\n        initialiseNoGo(537,40);\n        initialiseNoGo(1362,40);\n        initialiseNoGo(598,40);\n\n\n      //  admin[0x930F61E88ddf5d392DCc1a6537ab4b3CE1ce30E7] = true; \n\n        gridCount = 1600;\n        noGoCount = 1600;\n     /*   addPath (157,40,1020);\n        addPath (4,40,1020);\n        addPath (42,40,1020);\n        addPath (43,40,1020);\n        addPath (82,40,1020);\n        addPath (82,40,1020);\n        addPath (83,40,1020);\n        addPath (84,40,1020);\n        addPath (159,40,1020);\n        addPath (160,40,1020);\n        addPath (161,40,1020);\n        addPath (158,40,1020);*/\n\n        //new path\n    /*    addPath (41,40,1020);\n        addPath (42,40,1020);\n        addPath (43,40,1020);\n        addPath (44,40,1020);\n        addPath (45,40,1020);\n        addPath (46,40,1020);\n        addPath (47,40,1020);\n        addPath (48,40,1020); */\n\n        addPath (450,40,1020);\n        addPath (451,40,1020);\n        addPath (452,40,1020);\n        addPath (453,40,1020);\n        addPath (454,40,1020);\n        addPath (455,40,1020);\n        addPath (456,40,1020);\n\n        //initialise the 10 drones Ethereum account ID to 0 \n        addDrone(0xDF4A7ca8AAAA520c502e9799749819BA588c5b11);\n\n\n    }\n\n    function initialiseNoGo (uint _gridIndex, uint _fl) private {\n        noGo[_gridIndex] = Cell(_gridIndex,0,_fl,0);\n    }\n\n    function addPath (uint _gridIndex, uint _fl, uint _ts) public {\n        require (!dronesActive[msg.sender]);\n\n        uint wt = pathGrid[_gridIndex].weight;\n\n        if (wt==0) {\n            pathGrid[_gridIndex] = Cell(_gridIndex,wt+3,_fl,_ts);\n        }\n        else {\n            pathGrid[_gridIndex] = Cell(_gridIndex,wt+2,_fl,_ts);\n        }\n    }\n\n    function removePath (uint _gridIndex, uint _fl, uint _ts) public {\n    \n    if (_ts > pathGrid[_gridIndex].end_time) {\n        if (pathGrid[_gridIndex].weight > 1 && pathGrid[_gridIndex].fl == _fl) {\n            pathGrid[_gridIndex].weight = pathGrid[_gridIndex].weight - 2;\n            pathGrid[_gridIndex].end_time = 1;\n        }\n    }\n    }\n    \n    function addTempNoGo(uint _gridIndex, uint _fl, uint _ts) public {\n        noGo[_gridIndex] = Cell(_gridIndex,0,_fl,_ts);\n    }\n    \n    function removeTempNoGo(uint _gridIndex, uint _fl, uint _ts) public {\n        if (_ts > noGo[_gridIndex].end_time) {\n        if (noGo[_gridIndex].weight == 0 && noGo[_gridIndex].fl == _fl) {\n            noGo[_gridIndex].weight = 1;\n        }}\n    }\n\n    function addDrone(address _droneID) public {\n        dronesActive[_droneID] = true;\n    }\n\n    function removeDrone(address _droneID) public {\n        dronesActive[_droneID] = false;\n    }\n\n}",
  "sourcePath": "/Users/vikramv/Documents/Studies-Oxford/Project/UTM/contracts/UTM.sol",
  "compiler": {
    "name": "solc",
    "version": "0.5.12+commit.7709ece9.Emscripten.clang"
  },
  "schemaVersion": "3.0.19",
  "updatedAt": "2020-08-27T23:09:24.336Z",
  "networkType": "ethereum",
  "devdoc": {
    "methods": {}
  },
  "userdoc": {
    "methods": {}
  }
}